:040000002EEF0BF0E4
:1000080000C01EF001C01DF002C01CF003C01BF0B0
:1000180004C01AF005C019F008C018F009C017F09C
:100028000AC016F00BC015F0E1CF27F0E2CF28F098
:10003800E9CF25F0EACF26F0F3CF23F0F4CF24F070
:10004800F5CF22F0F8CF1FF0F7CF20F0F6CF21F050
:10005800A1AA04D0A19A28EC0AF020D0F2A209D0D3
:10006800F29205014053010ED8A4000E406F44805F
:1000780015D0F0A009D00501F0904153010ED8A485
:10008800000E416F44800AD0F0A208D00501F0921A
:100098004253010ED8A4000E426F448022C0F5FFDF
:1000A8001FC0F8FF20C0F7FF21C0F6FF23C0F3FFF1
:1000B80024C0F4FF1EC000F01DC001F01CC002F0F7
:1000C8001BC003F01AC004F019C005F018C008F0EE
:1000D80017C009F016C00AF015C00BF025C0E9FFDB
:0E00E80026C0EAFF27C0E1FF28C0E2FF11009A
:1000F6001E0E716E100E2F6E040E306E2FC0E1FFB5
:1001060030C0E2FFE69E2FC0E1FF30C0E2FFE69C72
:10011600040E2F24E16E000E3020E26EE68C180EDF
:100126002B6E040E2C6E2BC0E1FF2CC0E2FFE69E68
:100136002BC0E1FF2CC0E2FFE69C040E2B24E16EEF
:10014600000E2C20E26EE68C020E2F24E16E000ECD
:100156003020E26E32C0E6FF33C0E6FF010E2F24E8
:10016600E16E000E3020E26E400EE66E2FC0E9FF13
:1001760030C0EAFFEECF00F02FC0E1FF30C0E2FF53
:10018600400E0014E66E2FC0E9FF30C0EAFFEECF46
:1001960000F02FC0E1FF30C0E2FF880E0010E66ECF
:1001A6002FC036F030C037F0040E2F18006E00C096
:0401B6002FF0120014
:1001BA000B6A0A6A096A00500402F4CF09F0F3CF05
:1001CA0008F001500502F4CF0BF0F3CF0AF000500B
:1001DA000502F3500926F4500A22E86A0B2201505C
:1001EA000402F3500926F4500A22E86A0B2208C0D6
:1001FA0000F009C001F00AC002F00BC003F01200BF
:10020A000401286B296B42D0488E28813150010A9B
:10021A00D8B4288350D0488E4ED0488E24BF16D0EA
:10022A0024C403F00F0E031603C000F0000E016E83
:10023A000036009001362D0E0024E96E000E0120D2
:10024A00EA6EEECF04F0EECF05F015D024C403F029
:10025A000F0E031603C000F0000E016E0036009068
:10026A000136290E0024E96E000E0120EA6EEECF57
:10027A0004F0EECF05F004C0E9FF05C0EAFFEECFB7
:10028A0001F001A402D0010E286F15D020C401F09C
:10029A001F0E01160150000AB7E020C401F01F0E1C
:1002AA0001160150010AB7E020C401F01F0E011621
:1002BA000150020AB2E048AE07D0280E456E040E7D
:0A02CA00466E4880020E496E1200D5
:1002D40004012251010A0FE120C401F01F0E01168E
:1002E4000150000A08E1488E2151030A03E1010E7E
:1002F400316E01D0316A2251000AD8A48BD020C4B7
:1003040001F01F0E01160150020AD8A483D024C4A0
:1003140001F00F0E01160150000AD8B47BD0488EAC
:1003240024BF16D024C403F00F0E031603C000F03C
:10033400000E016E0036009001362D0E0024E96E89
:10034400000E0120EA6EEECF04F0EECF05F015D0DA
:1003540024C403F00F0E031603C000F0000E016E58
:10036400003600900136290E0024E96E000E0120AB
:10037400EA6EEECF04F0EECF05F02151030A07E157
:1003840004C0E1FF05C0E2FF840EE66E43D024C43E
:1003940000F00F0E0016700E026E0F0E036E00506A
:1003A4000226D8B0032A02C0E9FF03C0EAFFFE0E0A
:1003B400EE14006EEECF01F0FF0E011602C0E1FF55
:1003C40003C0E2FF00C0E6FF01C0E6FF24AF11D086
:1003D40004C0E1FF05C0E2FFE66A040E0418006EE3
:1003E40000C004F004C0E1FF05C0E2FF400EE66E69
:1003F40011D004C0E1FF05C0E2FF880EE66E040ED2
:100404000418006E00C004F004C0E1FF05C0E2FF60
:06041400C80EE66E1200A6
:10041A00488E716A4D6A22C44CF04C50000A03E1BE
:0E042A00100E4B6E03D0200E4B6E60DE1200E3
:1004380004012051800AD8A473D0C00E486E65D03C
:100448000E0E006E180E016E000E026E00C045F012
:1004580001C046F002C047F0120E496E000E4A6E07
:100468005FD0030E006E000E016E22C404F0000E71
:10047800056E9FDE410E0024E96E000E0120EA6E33
:10048800EECF45F0EECF46F0EECF47F0020E452412
:10049800F66E000E4620F76E000E4720F86E090033
:1004A800F5CF00F00900F5CF01F000C049F001C018
:1004B8004AF036D022510001645D23E3030E006E3A
:1004C800000E016E22C404F0000E056E72DE380EB6
:1004D8000024E96E000E0120EA6EEECF45F0EECF63
:1004E80046F0EECF47F045C0F6FF46C0F7FF47C0DD
:1004F800F8FF0900F5CF00F000C049F0000E4A6E81
:1005080001D0486A0DD0486A0BD004012351010A72
:1005180097E02351020AA5E02351030ACBE0F3D761
:020528001200BF
:10052A0020C401F01F0E01160150010A01E08DD00E
:10053A0004012451000A01E088D02151060A3FE152
:10054A0034D04C50010A17E19C0E006E170E016E52
:10055A00000E026E120E0026000E0122022200C0B8
:10056A0045F001C046F002C047F0090E496E000E80
:10057A004A6EC00E486E23D04C50010A12E1ED0EAD
:10058A00006E170E016E000E026E00C045F001C02B
:10059A0046F002C047F0210E496E000E4A6EC00EA8
:1005AA00486E0DD0800E486E0AD004012351210AEC
:1005BA00C8E02351220AE0E02351230AF3E020C4D1
:1005CA0001F0600E0116050E006E005004E00132C3
:1005DA00019EFF0FFBD70150010A01E036D022D05D
:1005EA0034D033D0510E456E000E466E010E496E60
:1005FA00000E4A6EC10E486E28D0800E486E23C483
:10060A0051F023D0500E456E000E466E010E496E13
:10061A00000E4A6E810E486E18D0800E486E22C4B3
:10062A0050F013D004012151010ADAE02151090ADC
:10063A00D8E02151020AD6E021510A0ADEE021510E
:0C064A00030AE0E021510B0AE8E0120076
:10065600000E4A5C02E1080E495C10E249C003F054
:100666004AC004F03550000A03E1010E356E05D08C
:100676003550010A02E1020E356E04D0080E036EF3
:10068600000E046E29C0E1FF2AC0E2FFE69229C0EF
:10069600E1FF2AC0E2FFE69029C0E9FF2AC0EAFF8F
:1006A600EECF00F029C0E1FF2AC0E2FF045000109F
:1006B600E66E010E2924E16E000E2A20E26E03C0CA
:1006C600E6FF0350495C006E04504A58016E00C0B4
:1006D60049F001C04AF0280E00016A6F040E6B6FE4
:1006E60048B02FD0035004102BE045C0F6FF46C09B
:1006F600F7FF47C0F8FF0900F5CF00F06AC0E1FF39
:100706006BC0E2FF00C0E6FF6A4B6B2B010E45246F
:10071600006E000E4620016E000E4720026E00C0DD
:1007260045F001C046F002C047F0010E035C006EC2
:10073600000E0458016E00C003F001C004F0D2D7C9
:1007460024D00350041021E045C0E9FF46C0EAFF6B
:100756006AC0E1FF6BC0E2FFEECFE6FF6A4B6B2B90
:10076600010E4524006E000E4620016E00C045F0C5
:1007760001C046F0010E035C006E000E0458016EC7
:0C07860000C003F001C004F0DCD712003A
:10079200010E00016525E96E000E6621EA6EEECFBC
:1007A20000F000C002F0000E5F5C02E102505E5CED
:1007B20003E25EC002F00AD002505E5C006E000EE0
:1007C2005F58016E00C05EF001C05FF0036A025024
:1007D200035C1CE2280EE96E040EEA6E0350E92661
:1007E200D8B0EA2AEECF00F05BC0E1FF5CC0E2FFC6
:1007F20000C0E6FF010E5B24006E000E5C20016E5D
:1008020000C05BF001C05CF0032AE1D7000E006E6D
:100812005F50005C02E15E50000828E2010E67258D
:10082200E16E000E6821E26E080EE66E020E67258A
:10083200E16E000E6821E26E280EE66E040EE66E90
:1008420065C0E9FF66C0EAFFEECF00F000BC07D04A
:1008520067C0E1FF68C0E2FFC80EE66E06D067C05F
:10086200E1FF68C0E2FF880EE66E19D0010E67252F
:10087200E16E000E6821E26E080EE66E020E67253A
:10088200E16E000E6821E26E200EE66E040EE66E48
:1008920067C0E1FF68C0E2FF840EE66E5D9E120053
:0E08A200160E6F6E9F0E6B6E3B0E696E12008F
:1008B0009C0E416E170E426E000E436E200E386E77
:1008C000180E396E000E3A6EC50E3B6E170E3C6E5A
:1008D000000E3D6E660E3E6E170E3F6E000E406EB1
:0208E000120004
:1008E20020C401F0600E0116050E006E005004E0F7
:1008F2000132019EFF0FFBD70150000A01E058D0E0
:1009020034D0488E080E4B6E53D095DD51D084DD25
:100912004FD04C0E456E000E466E4880010E496E59
:10092200488E46D071DC44D0D4DC42D04D0E006EED
:10093200000E016E24510026D8B0012A00C045F0F5
:1009420001C046F04880010E496E488E31D0488E73
:100952004D0EE16E000EE26E2451E126D8B0E22A7D
:1009620022C4E6FF25D024D023D004012151050A58
:10097200C8E02151060AC9E02151090AC8E0215103
:10098200080AC7E02151000ACDE02151010ACCE05A
:100992002151030AC9E021510A0AC8E021510B0A78
:1009A200D6E02151070ADFE021510C0ADDE0DCD755
:0209B200120031
:0A09B4000001695301E0B7DD1200F5
:1009BE006D9848BE4BD05DAE29D0020E346E010E3E
:1009CE002924E16E000E2A20E26EE66A29C0E1FFBC
:1009DE002AC0E2FFC80EE66E010E00016725E16E29
:1009EE00000E6821E26E080EE66E020E6725E16EBD
:1009FE00000E6821E26E280EE66E040EE66E67C0EB
:100A0E00E1FF68C0E2FFC80EE66E1FD00001010EC6
:100A1E006725E16E000E6821E26E080EE66E020E8C
:100A2E006725E16E000E6821E26E200EE66E040E62
:100A3E00E66E67C0E1FF68C0E2FF8C0EE66E29C06D
:100A4E00E1FF2AC0E2FF840EE66E7FD05DBE7DD050
:100A5E00040120AF52D04A50275D02E14950265D75
:100A6E0004E226C449F027C44AF0EEDD010E346ECE
:100A7E00010E00016725E16E000E6821E26E080E80
:100A8E00E66E020E6725E16E000E6821E26E200E04
:100A9E00E66E040EE66E67C0E1FF68C0E2FF800EF0
:100AAE00E66E6C6B010E6525E16E000E6621E26E40
:100ABE00080EE66E020E6525E16E000E6621E26EF0
:100ACE00200EE66E040EE66E65C0E1FF66C0E2FF24
:100ADE00840EE66E010E6C6F020E2924E16E000E7E
:100AEE002A20E26E280EE66E040EE66E29C0E1FFA5
:100AFE002AC0E2FFC80EE66E28D00001020E346E48
:100B0E00010E2924E16E000E2A20E26EE66A29C04B
:100B1E00E1FF2AC0E2FFC80EE66E010E6725E16E08
:100B2E00000E6821E26E080EE66E020E6725E16E7B
:100B3E00000E6821E26E280EE66E040EE66E67C0A9
:0C0B4E00E1FF68C0E2FFC80EE66E120076
:100B5A00346A29C0E1FF2AC0E2FFE66A040E2918B6
:100B6A00E16E2AC0E2FF000EE21AE66A5DBE5D9EF1
:020B7A00120067
:100B7C00040E2918006E00C029F04B50080A0AE137
:100B8C0022C46EFF6E50000803E2100E4B6E02D0B2
:100B9C00040E4B6E3450010A3AE1020E2924E16E28
:100BAC00000E2A20E26E280EE66E040EE66E4DDD77
:100BBC003550020A07E129C0E1FF2AC0E2FF840E8A
:100BCC00E66E24D0040E2918006E00C029F029C04E
:100BDC00E9FF2AC0EAFFEECF00F000BC0CD0040EF7
:100BEC002918006E00C029F029C0E1FF2AC0E2FFDD
:100BFC00C80EE66E0BD0040E2918006E00C029F04A
:100C0C0029C0E1FF2AC0E2FF880EE66E01D09FDF0B
:020C1C001200C4
:100C1E0070A019D065C0E9FF66C0EAFFEECF01F003
:100C2E000150800A0FE129C0E9FF2AC0EAFFEECF8A
:100C3E0001F00150840A06E165C0E1FF66C0E2FFE3
:0C0C4E008C0EE66E7090DF0E681612002F
:100C5A003450020A02E198DD1FD07ADF00016C519C
:100C6A00000A19E1010E6725E16E000E6821E26EA5
:100C7A00080EE66E020E6725E16E000E6821E26E2E
:100C8A00200EE66E040EE66E67C0E1FF68C0E2FF62
:0A0C9A008C0EE66E01D06C6B1200A8
:100CA40029C0E9FF2AC0EAFFEECF00F000AE05D06C
:100CB40029C0E1FF2AC0E2FFE66A356A346A496A5C
:0C0CC4004A6A486A0CDE74DE78DE12001A
:100CD000EFDD366A376A526A536A6A6A686AE1DD2A
:100CE0006D8C6E6A716A6D9C596A5A6A000E5A5C04
:100CF00002E1080E595C17E259C000F05AC001F039
:100D0000003600900136003600900136000E0024B7
:100D1000E16E040E0120E26EE66AE66AE66AE66AC1
:100D2000594A5A2AE3D7160E706E68A603D0F70EFA
:100D30006816FBD7486A5D6A5E6A5F6A6D98080E3E
:0C0D4000296E040E2A6E4C6A4B6A1200E9
:0A0D4C006984EF0E68166D82120034
:040D5600A19A12004C
:100D5A006D92699468A403D0FB0E6816FBD7120043
:0A0D6A00D08EA28AA08AF28E120039
:100D740000017B6B7C6B7D6B020E7825F66E000E9A
:100D84007921F76E000E7A21F86E0900F5CF05F08F
:100D9400030E7825F66E000E7921F76E000E7A2187
:100DA400F86E0900F5CF00F000C003F0000E046EE9
:100DB40003C001F0006A05500024066E000E0120F5
:100DC400076E78C008F079C009F07AC00AF0010E05
:100DD4000824F66E000E0920F76E000E0A20F86E45
:100DE4000900F5CF01F00150020A1BE1060E0824A8
:100DF400F66E000E0920F76E000E0A20F86E090048
:100E0400F5CF01F001507B5D0CE2060E0824F66E6E
:100E1400000E0920F76E000E0A20F86E0900F5CFC7
:100E24007BF0010E0824F66E000E0920F76E000E0A
:100E34000A20F86E0900F5CF01F00150040A1BE105
:100E4400080E0824F66E000E0920F76E000E0A2024
:100E5400F86E0900F5CF01F001507B5D0CE2080E3D
:100E64000824F66E000E0920F76E000E0A20F86EB4
:100E74000900F5CF7BF008C0F6FF09C0F7FF0AC0F0
:100E8400F8FF0900F5CF00F000507C25016E000E3C
:100E94007D21026E01C07CF002C07DF00750025C2F
:100EA40002E10650015C01E30FD008C0F6FF09C05F
:100EB400F7FF0AC0F8FF0900F5CF00F0005008263C
:0E0EC400000E09220A2283D77BC000F0120024
:100ED2000E0E006E180E016E000E026E0E0E002433
:100EE200F66E000E0120F76E000E0220F86E090069
:100EF200F5CF03F003C004F00F0E0024F66E000ECF
:100F02000120F76E000E0220F86E0900F5CF01F005
:100F12000150035C12E20E0E006E180E016E000EFE
:100F2200026E0F0E0024F66E000E0120F76E000E08
:100F32000220F86E0900F5CF04F00E0E006E180EB6
:100F4200016E000E026E100E0024F66E000E0120DD
:100F5200F76E000E0220F86E0900F5CF01F0015085
:100F6200045C12E20E0E006E180E016E000E026E8E
:100F7200100E0024F66E000E0120F76E000E022005
:0E0F8200F86E0900F5CF04F004C000F0120074
:100F9000000E0001791902E1000E781902E1016AE0
:100FA0000AD078C0E9FF79C0EAFFEECF00F0000E6A
:0C0FB00000BE010E016E01C000F0120036
:100FBC0000017951000A12E078C000F0000E016EB9
:100FCC00003600900136290E0024E96E000E012037
:100FDC00EA6EEECF04F0EECF05F011D078C000F041
:100FEC00000E016E0036009001362D0E0024E96EC5
:100FFC00000E0120EA6EEECF04F0EECF05F0020EEB
:10100C000424E16E000E0520E26E7AC0E6FF7BC080
:10101C00E6FF010E0424E16E000E0520E26E7CC09A
:10102C00E6FF04C0E9FF05C0EAFFEECF00F004C004
:10103C00E1FF05C0E2FF400E0014E66E04C0E9FFBC
:10104C0005C0EAFFEECF00F004C0E1FF05C0E2FFEF
:10105C00880E0010E66E7951000A1BE078C000F093
:10106C00000E016E003600900136290E0024026E2F
:10107C00000E0120036E02C0E9FF03C0EAFF040E5C
:10108C00EE18006E02C0E1FF03C0E2FF00C0E6FFF5
:10109C001AD078C000F0000E016E003600900136B8
:1010AC002D0E0024026E000E0120036E02C0E9FF1B
:1010BC0003C0EAFF040EEE18006E02C0E1FF03C08D
:1010CC00E2FF00C0E6FF04C000F005C001F0120012
:1010DC004B50000A0AE16D6A696A51EC04F06DB676
:1010EC0002D06D86FCD7010E4B6E4B50010A08E105
:1010FC006DBA06D0686A696A69806988020E4B6E9F
:10110C0068A405D069A403D0FB0E681620DE6DA27E
:10111C0002D01BDED5D068A018D069A016D0D2DDC5
:10112C00040E4B6E200E0401026F040E036F080EAA
:10113C00016F000E0015006E00C000F48C0E001143
:10114C00006E00C000F4FE0E681668A805D069A8F1
:10115C0003D0F6DDEF0E681668AC04D069AC02D093
:10116C00BF0E681668AA03D069AA01D052DD68A226
:10117C0002D069B26A6A040E4B5C02E2E6DDA0D0D2
:10118C0069A69DD00001796B040E795DD8B097D01B
:10119C0068A691D06CCF58F0F70E6816780E5814DC
:1011AC00016E0150000AD8A485D0FD0E5814016EB2
:1011BC00026AFF0E0216000E021802E1000E011860
:1011CC006BE17E0E5814016E01C003F00332039ED6
:1011DC0003C000F0000E016E0036009001360036A0
:1011EC0000900136000E0024026E040E0120036EE6
:1011FC0002C065F003C066F002C067F003C068F07F
:10120C00040E6719006E00C067F002C0E9FF03C04E
:10121C00EAFFEECF00F000C001F03C0E01160132E7
:10122C00019E0132019E01500D0A34E1020E65252A
:10123C00E96E000E6621EA6EEECF01F0EECF02F001
:10124C000250040A02E1280E011822E1020E652563
:10125C00E16E000E6621E26E200EE66E040EE66E66
:10126C00786B080E785D14E2200EE16E040EE26ECF
:10127C007851E126D8B0E22A280EE96E040EEA6E07
:10128C007851E926D8B0EA2AEECFE6FF782BE9D7D9
:10129C0003DD01D0DCDC0DD0FD0E5814016E026AAA
:1012AC00FF0E0216000E021802E1040E011801E1F5
:1012BC005FDC00D001D003D00001792B65D745DD70
:0212CC0012000E
:1012CE0001DE00C071F09C0E0001786F170E796F71
:1012DE00000E7A6F48DD00C072F07151005C03E2BF
:0C12EE0071C000F002D072C000F01200CD
:1012FA004B50000A0BE16D6A696A51EC04F030DD6B
:0E130A006DB602D06D86FCD7010E4B6E120040
:10131800200E4B5C03E36DB201D002D0006A46D0C8
:1013280052C078F053C079F02FDE00523EE174C00D
:1013380078F0010E796F71C07AF072C07BF073C0DB
:101348007CF038DE00C052F001C053F0546A556A90
:10135800566A576A52C078F053C079F015DE0052C9
:101368000EE0010E016E0150000A01E1B3DE545097
:1013780055105610571002E0006A18D0EBD752C02B
:1013880075F053C076F0000E531802E1000E5218A3
:101398000AE0010E00017525E96E000E7621EA6E5D
:0E13A800EECF00F003D0006A01D0006A120000
:1013B6000001776B200E4B5C03E36DB201D002D0C7
:1013C600006A2DD036C078F037C079F0DEDD0052E5
:1013D60025E136C075F037C076F0000E371802E109
:1013E600000E36180AE0010E7525E96E000E76210C
:1013F600EA6EEECF00F000C077F074C078F0796B3B
:1014060071C07AF072C07BF073C07CF0D4DD00C08E
:1014160036F001C037F077C000F001D0006A120044
:1014260053DF00C064F0010E696F6DC032F06EC00C
:1014360033F06FC04EF070C04FF047DC010E016E06
:0A1446000150010A01E156DF120017
:101450004B50010A07E16DBA05D0686A6980698856
:10146000020E4B6E68A405D069A403D0FB0E68166B
:1014700074DC6DA202D06FDCDAD068A018D069A04D
:1014800016D026DC040E4B6E200E0401026F040EF3
:10149000036F080E016F000E0015006E00C000F40F
:1014A0008C0E0011006E00C000F4FE0E681668A8D5
:1014B00005D069A803D04ADCEF0E681668AC04D0EA
:1014C00069AC02D0BF0E681668AA04D069AA02D01F
:1014D0000FEC06F068A202D069B26A6A040E4B5C97
:1014E00002E239DCA4D069A6A0D000017F6B040E13
:1014F0007F5DD8B09AD068A694D06CCF58F0F70E24
:101500006816780E5814016E0150000AD8A488D0CD
:10151000FD0E5814016E026AFF0E0216000E02182C
:1015200002E1000E01186DE17E0E5814016E01C03B
:1015300003F00332039E03C000F0000E016E00367C
:1015400000900136003600900136000E0024026E35
:10155000040E0120036E02C065F003C066F002C0F5
:1015600067F003C068F0040E6719006E00C067F0F2
:1015700002C0E9FF03C0EAFFEECF00F000C001F0B7
:101580003C0E01160132019E0132019E01500D0AEE
:1015900035E1020E6525E96E000E6621EA6EEECF9A
:1015A00001F0EECF02F00250040A02E1280E011809
:1015B00022E1020E6525E16E000E6621E26E200E2C
:1015C000E66E040EE66E7E6B080E7E5D14E2200E63
:1015D000E16E040EE26E7E51E126D8B0E22A280EBA
:1015E000E96E040EEA6E7E51E926D8B0EA2AEECF03
:1015F000E6FF7E2BE9D752EC06F002D02DEC06F088
:101600000ED0FD0E5814016E026AFF0E0216000E77
:10161000021802E1040E011802E1BEEC05F000D050
:1016200001D003D000017F2B62D7ABEC06F0120093
:1016300032C071F033C072F0400E0001736F010EC2
:06164000746FB9DE120018
:101646006DC071F06EC072F06FC073F0010E0001D4
:06165600746F5FDE12005C
:10165C000F0EC112070EB412816A8A6A938493B476
:10166C0002D0939201D0938293B202D0939001D086
:10167C009380836A8C6A956A000E00016D6F050E6B
:10168C006E6F400E6F6F050E706FC7DEF092F0B28A
:10169C0002D0F09001D0F080F0B002D0F29201D0E4
:1016AC00F282F088F0B802D0F09601D0F086F0B655
:1016BC0002D0F29801D0F288F188F1B802D0F19AF8
:1016CC0001D0F18AF1BA02D0F19C01D0F18CA19A2F
:1016DC00A08AF28EF28CA6DF0050000A31E00501E0
:1016EC000051010A02E1838001D083900151010A6B
:1016FC0002E1838201D083920251010A02E18384C8
:10170C0001D083940351010A02E1838601D08396B0
:10171C000451010A02E1838801D083980551010A22
:10172C0002E1838A01D0839A0651010A02E1838C7B
:10173C0001D0839C0751010A02E1838E01D0839E64
:10174C0044A009D04490400E00016D6F050E6E6FE1
:0A175C00400E6F6F72DFBFD7FFD79A
:101766003603550053004200200028004800490077
:1017760044002900200049006E00740065007200D4
:1017860066006100630065002000530061006D0083
:0617960070006C0065000C
:10179C000902290001010080320904000002030043
:1017AC0000000921010100012221000705810340ED
:0917BC00000107050103400001D2
:1017C5002803700071007400720069003200300057
:1017D50030003200400067006D00610069006C0058
:0817E5002E0063006F006D008F
:1017ED000600FF0901A10119012940150026FF007E
:1017FD00750895408102190129407508954091029F
:01180D00C01A
:10180E001201000200000008D804010001000102CC
:02181E000001C7
:0418200004030904B0
:020000040030CA
:0E000000240C391EFF8081FF0FC00FE00F405F
:00000001FF
